{
  "_format": "hh-sol-artifact-1",
  "contractName": "Bank",
  "sourceName": "hardhat/contracts/Bank.sol",
  "abi": [
    {
      "anonymous": false,
      "inputs": [
        {
          "indexed": true,
          "internalType": "address",
          "name": "user",
          "type": "address"
        },
        {
          "indexed": false,
          "internalType": "uint256",
          "name": "amount",
          "type": "uint256"
        }
      ],
      "name": "Deposit",
      "type": "event"
    },
    {
      "anonymous": false,
      "inputs": [
        {
          "indexed": true,
          "internalType": "address",
          "name": "user",
          "type": "address"
        },
        {
          "indexed": false,
          "internalType": "uint256",
          "name": "amount",
          "type": "uint256"
        }
      ],
      "name": "Withdraw",
      "type": "event"
    },
    {
      "inputs": [
        {
          "internalType": "address",
          "name": "",
          "type": "address"
        }
      ],
      "name": "balances",
      "outputs": [
        {
          "internalType": "uint256",
          "name": "",
          "type": "uint256"
        }
      ],
      "stateMutability": "view",
      "type": "function"
    },
    {
      "inputs": [],
      "name": "deposit",
      "outputs": [],
      "stateMutability": "payable",
      "type": "function"
    },
    {
      "inputs": [
        {
          "internalType": "uint256",
          "name": "amount",
          "type": "uint256"
        }
      ],
      "name": "withdraw",
      "outputs": [],
      "stateMutability": "nonpayable",
      "type": "function"
    }
  ],
  "bytecode": "0x608060405234801561001057600080fd5b506102e2806100206000396000f3fe6080604052600436106100345760003560e01c806327e235e3146100395780632e1a7d4d14610078578063d0e30db01461009a575b600080fd5b34801561004557600080fd5b50610066610054366004610221565b60006020819052908152604090205481565b60405190815260200160405180910390f35b34801561008457600080fd5b50610098610093366004610251565b6100a2565b005b610098610187565b336000908152602081905260409020548111156100fd5760405162461bcd60e51b8152602060048201526014602482015273496e73756666696369656e742062616c616e636560601b60448201526064015b60405180910390fd5b336000908152602081905260408120805483929061011c908490610280565b9091555050604051339082156108fc029083906000818181858888f1935050505015801561014e573d6000803e3d6000fd5b5060405181815233907f884edad9ce6fa2440d8a54cc123490eb96d2768479d49ff9c7366125a94243649060200160405180910390a250565b600034116101c65760405162461bcd60e51b815260206004820152600c60248201526b16995c9bc819195c1bdcda5d60a21b60448201526064016100f4565b33600090815260208190526040812080543492906101e5908490610299565b909155505060405134815233907fe1fffcc4923d04b559f4d29a8bfc6cda04eb5b0d3c460751c2402c5c5cc9109c9060200160405180910390a2565b60006020828403121561023357600080fd5b81356001600160a01b038116811461024a57600080fd5b9392505050565b60006020828403121561026357600080fd5b5035919050565b634e487b7160e01b600052601160045260246000fd5b818103818111156102935761029361026a565b92915050565b808201808211156102935761029361026a56fea264697066735822122099ad85aaa10044ef89401cd9589f3714d48949c381daa8a87f9d4f81b12bc11164736f6c63430008140033",
  "linkReferences": {},
  "deployedLinkReferences": {}
}