{
  "_format": "hh-sol-artifact-1",
  "contractName": "Lesson8_EventsBank",
  "sourceName": "contracts/Lesson8_EventsBank.sol",
  "abi": [
    {
      "anonymous": false,
      "inputs": [
        {
          "indexed": true,
          "internalType": "address",
          "name": "user",
          "type": "address"
        },
        {
          "indexed": false,
          "internalType": "uint256",
          "name": "amount",
          "type": "uint256"
        }
      ],
      "name": "Deposit",
      "type": "event"
    },
    {
      "anonymous": false,
      "inputs": [
        {
          "indexed": true,
          "internalType": "address",
          "name": "user",
          "type": "address"
        },
        {
          "indexed": false,
          "internalType": "uint256",
          "name": "amount",
          "type": "uint256"
        }
      ],
      "name": "Withdraw",
      "type": "event"
    },
    {
      "stateMutability": "payable",
      "type": "fallback"
    },
    {
      "inputs": [
        {
          "internalType": "address",
          "name": "",
          "type": "address"
        }
      ],
      "name": "balances",
      "outputs": [
        {
          "internalType": "uint256",
          "name": "",
          "type": "uint256"
        }
      ],
      "stateMutability": "view",
      "type": "function"
    },
    {
      "inputs": [],
      "name": "deposit",
      "outputs": [],
      "stateMutability": "payable",
      "type": "function"
    },
    {
      "inputs": [
        {
          "internalType": "uint256",
          "name": "amount",
          "type": "uint256"
        }
      ],
      "name": "withdraw",
      "outputs": [],
      "stateMutability": "nonpayable",
      "type": "function"
    },
    {
      "stateMutability": "payable",
      "type": "receive"
    }
  ],
  "bytecode": "0x608060405234801561001057600080fd5b506107b9806100206000396000f3fe6080604052600436106100385760003560e01c806327e235e3146100415780632e1a7d4d1461007e578063d0e30db0146100a75761003f565b3661003f57005b005b34801561004d57600080fd5b506100686004803603810190610063919061042b565b6100b1565b6040516100759190610471565b60405180910390f35b34801561008a57600080fd5b506100a560048036038101906100a091906104b8565b6100c9565b005b6100af6102e0565b005b60006020528060005260406000206000915090505481565b6000811161010c576040517f08c379a000000000000000000000000000000000000000000000000000000000815260040161010390610542565b60405180910390fd5b806000803373ffffffffffffffffffffffffffffffffffffffff1673ffffffffffffffffffffffffffffffffffffffff16815260200190815260200160002054101561018d576040517f08c379a0000000000000000000000000000000000000000000000000000000008152600401610184906105ae565b60405180910390fd5b806000803373ffffffffffffffffffffffffffffffffffffffff1673ffffffffffffffffffffffffffffffffffffffff16815260200190815260200160002060008282546101db91906105fd565b9250508190555060003373ffffffffffffffffffffffffffffffffffffffff168260405161020890610662565b60006040518083038185875af1925050503d8060008114610245576040519150601f19603f3d011682016040523d82523d6000602084013e61024a565b606091505b505090508061028e576040517f08c379a0000000000000000000000000000000000000000000000000000000008152600401610285906106c3565b60405180910390fd5b3373ffffffffffffffffffffffffffffffffffffffff167f884edad9ce6fa2440d8a54cc123490eb96d2768479d49ff9c7366125a9424364836040516102d49190610471565b60405180910390a25050565b60003411610323576040517f08c379a000000000000000000000000000000000000000000000000000000000815260040161031a9061072f565b60405180910390fd5b346000803373ffffffffffffffffffffffffffffffffffffffff1673ffffffffffffffffffffffffffffffffffffffff1681526020019081526020016000206000828254610371919061074f565b925050819055503373ffffffffffffffffffffffffffffffffffffffff167fe1fffcc4923d04b559f4d29a8bfc6cda04eb5b0d3c460751c2402c5c5cc9109c346040516103be9190610471565b60405180910390a2565b600080fd5b600073ffffffffffffffffffffffffffffffffffffffff82169050919050565b60006103f8826103cd565b9050919050565b610408816103ed565b811461041357600080fd5b50565b600081359050610425816103ff565b92915050565b600060208284031215610441576104406103c8565b5b600061044f84828501610416565b91505092915050565b6000819050919050565b61046b81610458565b82525050565b60006020820190506104866000830184610462565b92915050565b61049581610458565b81146104a057600080fd5b50565b6000813590506104b28161048c565b92915050565b6000602082840312156104ce576104cd6103c8565b5b60006104dc848285016104a3565b91505092915050565b600082825260208201905092915050565b7f696e76616c696420616d6f756e74000000000000000000000000000000000000600082015250565b600061052c600e836104e5565b9150610537826104f6565b602082019050919050565b6000602082019050818103600083015261055b8161051f565b9050919050565b7f6e6f7420656e6f75676800000000000000000000000000000000000000000000600082015250565b6000610598600a836104e5565b91506105a382610562565b602082019050919050565b600060208201905081810360008301526105c78161058b565b9050919050565b7f4e487b7100000000000000000000000000000000000000000000000000000000600052601160045260246000fd5b600061060882610458565b915061061383610458565b925082820390508181111561062b5761062a6105ce565b5b92915050565b600081905092915050565b50565b600061064c600083610631565b91506106578261063c565b600082019050919050565b600061066d8261063f565b9150819050919050565b7f7769746864726177206661696c65640000000000000000000000000000000000600082015250565b60006106ad600f836104e5565b91506106b882610677565b602082019050919050565b600060208201905081810360008301526106dc816106a0565b9050919050565b7f6e6f207a65726f2076616c756500000000000000000000000000000000000000600082015250565b6000610719600d836104e5565b9150610724826106e3565b602082019050919050565b600060208201905081810360008301526107488161070c565b9050919050565b600061075a82610458565b915061076583610458565b925082820190508082111561077d5761077c6105ce565b5b9291505056fea2646970667358221220fde15a13416f126b3c2b924d4a2405c3849f0fb471e283715b66539e14eb698c64736f6c63430008140033",
  "linkReferences": {},
  "deployedLinkReferences": {}
}